:020000040800F2
:1000000048060020D9000008E1000008E3000008CD
:1000100000000000000000000000000000000000E0
:10002000000000000000000000000000E5000008E3
:100030000000000000000000E7000008E9000008E0
:10004000EB000008EB000008EB000008EB000008E4
:10005000EB000008EB000008EB000008EB000008D4
:1000600000000000EB000008EB00000800000000AA
:10007000EB000008EB000008EB00000800000000A7
:10008000EB000008EB00000800000000EB00000897
:1000900000000000EB000008EB000008EB00000887
:1000A00000000000EB00000800000000EB0000086A
:1000B000EB0000080000000000000000000000004D
:1000C0000448854600F016F800480047190100086A
:1000D000C046C04648060020044880470448004700
:1000E000FEE7FEE7FEE7FEE7FEE7FEE70D0A000893
:1000F000C1000008064C0125064E05E0E36807CC68
:100100002B430C3C98471034B442F7D3FFF7DCFF85
:10011000B40D0008D40D000810B50122D20600204D
:10012000074B810054585C50401CC0B23028F8D3B3
:10013000012004494007886000F020FE002010BD27
:100140000000002000ED00E010B503460846154A07
:1001500011689415214311605168090C0904194371
:10016000516011684905CB0F002BFAD091680F231D
:100170001B02994391609168C908C90091603824B5
:1001800093682340002BFBD107490B685B085B0099
:100190000B60916807231B039943916000F0F4FA08
:1001A00010BD00000010024000200240F8B500F031
:1001B0005FFC4048416B0222114341633E4C206882
:1001C0000321890388432060E06856033043E060E0
:1001D0003A490868421C0A6039490025884224D9F6
:1001E000012000F0EDFB0095364C02E00098401C29
:1001F00000900098A042F9D3002000F0E1FB0095A8
:1002000002E00098401C00900098A042F9D3012021
:1002100000F0D6FB009502E00098401C009000988A
:10022000A042F9D3284800F05BFA00F039FC022222
:100230004021204600F093FA02228021204600F05F
:100240008EFA00224021204600F07CFA0022802114
:10025000204600F077FA4020616881436160802089
:1002600061688143616001224021204600F081FAEB
:1002700001228021204600F07CFA0E4840300168BF
:10028000314301601148C168052292021143C160E7
:10029000D0218160C16842141143C16001686022AD
:1002A00091430160C1680C221143C160432000F0FA
:1002B000D1FBF8BD0010024000040050C400002033
:1002C000E093040050C300000040000800380140E3
:1002D000F8B5012600F0B0FB044600F0ADFB014686
:1002E0006140FF2903D01F2000F0B4FBF8BD792046
:1002F00000F0B0FB734F732C0BD006DC312C08D010
:10030000442C06D0632C35D103E0822C01D0922CF2
:1003100030D13869C00303D51F2000F09BFBF8BD26
:100320007869002826DA6848B8606848B860684884
:10033000C16ACAB267490A60C26AD201D20D4A6074
:10034000C26A1204120E0A61026BD2B28A60026B98
:100350005201520DCA60426BD203D20B4A61826BCA
:10036000D203D20B8A61C26B92B2CA61C06B8000A9
:10037000800C0862312C64D00EDC032C4CD006DCDF
:10038000002C25D0012C33D0022C16D13AE0112CB0
:1003900050D0212C11D150E000211F224E48732C47
:1003A0005BD004DC442C50D0632C06D151E0484B88
:1003B000C03B822C5ED0922C65D00026732C73D06B
:1003C0006EDC312C70D0442C6ED0632C71D16BE07C
:1003D0000C2000F03FFB102000F03CFB00253F48C4
:1003E000405D00F037FB6D1CEDB20C2DF7D3E5E757
:1003F000102000F02FFB002000F02CFB002000F06C
:1004000029FBDBE7012000F025FB042000F022FBA4
:10041000402000F01FFBD1E7012000F01BFB304D16
:1004200028680005000F00F015FB2868C0B200F036
:1004300011FBC3E700F02CFAF8BD00F035F90646D1
:10044000BCE700F08DFB0646B8E700F04BF8064627
:10045000B4E700F04DFC0646B0E702704170FF21A2
:10046000017141711A4807221B49BC3800F0C8FBD2
:100470000646A3E75521017000221749184600F0EF
:10048000BFFB06469AE7AA250570B02545700271A4
:10049000417107221049184600F0B2FB06468DE76D
:1004A000822C01D0922C04D178690121C90708431C
:1004B0007861012E03D01F2000F0CCFAF8BD79201E
:1004C000FAE700000020024023016745AB89EFCD29
:1004D000400FFF1F00210240C8000020A80D0008A7
:1004E00000580140FEB500F0A7FA054600F0A4FA56
:1004F000009028460546009868400190FF2D04D0E2
:100500000026009C641C67000FE000F095FA01993A
:10051000884201D00020FEBD00F03CF9FEBD00F095
:100520008BFA18498855761CF6B2B742F7D8394687
:100530001448019A00F0ACF8064600F07DFAB0428B
:1005400001D00020FEBD00210E4807E04A00835C78
:100550001618777887547370491CC9B2A142F5D335
:10056000002D03D0202D07D00020FEBD0822054815
:10057000009900F03DF9FEBD0248009900F0F0F945
:10058000FEBD0000C800002070B5044600F054FA1B
:10059000374D287000F050FA687000F04DFAA870DE
:1005A00000F04AFAE87000F047FA064600220421FB
:1005B000284600F06DF8864201D0002070BD7920F9
:1005C00000F048FA2978E878090640186978AA788E
:1005D00009041202891840182060264A264B811A05
:1005E00090420BD005DC254940180FD026280FD1AA
:1005F00004E0082904D020290AD103E0032070BDBB
:10060000236005E01C488030206001E01C48206029
:100610000122D2061B4D287F4007400F401C40039B
:1006200081182068904203D3884201D2012070BD16
:10063000154A297F14058906890F491CC902091921
:10064000904203D3884201D2022070BD0F498842F4
:1006500003D3984201D2052070BD0A492031984247
:1006600003D3884201D2032070BD002070BD00007A
:10067000C8000020E0F7FF1F000EFF1F5A0800E02F
:10068000FC0B0008E00FFF1F000200200000FF1F0E
:1006900002E00378401C5A400B46491E89B2002BE9
:1006A000F7D110467047000008B56846FFF76CFFA9
:1006B000012803D0022801D0002008BD06480121EE
:1006C00080884903C004C00C40180449FFF73CFD72
:1006D000009800F005F80000000FFF1F00127A00DC
:1006E000810701D000F076F80368416807225207BD
:1006F000104C9A18A24205D2E206914202D30E4A49
:10070000914201D900F066F872B600240B4AE44326
:100710009462D462146300249462D4621463084A1D
:10072000906083F30888BFF34F8FBFF36F8F8847C4
:1007300000F050F80118000000000108001002400D
:1007400000ED00E010B5046A0B464B434B434B43AE
:100750001901C91A8C4353431C43046210BD10B5E0
:10076000036849434C000C19A34351430B430360F6
:1007700010BD10B5C36849434C000C19A343514345
:100780000B43C36010BD00000149086070470000C2
:10079000C0000020F8B50D4C0D49097F62034907E0
:1007A000490F491C49038D185642D7130AE0A01976
:1007B0000001000C00900021684600F0D1F80128EB
:1007C00002D1E419AC42F2D3F8BD000000400008A9
:1007D000E00FFF1FBFF34F8F04490348C860BFF30A
:1007E0004F8F00BFFDE700000400FA0500ED00E0B8
:1007F000F7B582B016460120224F7A69224B1A4380
:100800007A610025491C01912FE0012830D1002494
:1008100027E000F045F902986900405A0121704331
:100820000019C001C90640181849097F1F2249074D
:10083000490F491CD20649038218914201D8012070
:100840000DE00021C94301603869C003FCD4386958
:10085000C00714D001203969012211433961641C99
:10086000E4B2B442D5D36D1CEDB201998D42CCD324
:100870007969054AD2431140796105B0F0BD002085
:10088000F1E700000020024002000001E00FFF1F1E
:1008900038B56846FFF778FE044620000BD000F01C
:1008A000CBF82B4D287000F0C7F829784840FF2876
:1008B00003D0002038BD002038BD792000F0CAF8F0
:1008C00024490098401804D0142802D0012C1ED0CE
:1008D0002FE02148017F4907490F491CC900697071
:1008E0000021A970007F8006800F401C4000E87046
:1008F0002971002405E02819407800F0ABF8641C49
:10090000A4B22878401CA042F5D8012038BD134875
:10091000006AC0B2AA280CD0002404E0207800F0BD
:1009200099F8641CA4B22878401CA042F6D8012093
:1009300038BD002405E00098005D00F08BF8641CD1
:10094000A4B22878401CA042F5D8012038BD000090
:10095000C8000020340800E0E00FFF1F0020024024
:10096000F8B50746144D6A69144B1A436A610024AE
:100970004E1C17E000F094F86100795A00200A0339
:100980000121C043C906511808602869C003FCD47E
:100990002869C0070ED0012029690122114329616D
:1009A000641CE4B2B442E5D36969044AD2431140FD
:1009B0006961F8BD0020F7E700200240000800014F
:1009C00018B502210F4A536B0B435363526B0A4015
:1009D00000920D490A6801239B020324A402A2434A
:1009E0001A430A6020224B6893434B60CA68A243B3
:1009F000CA60002802D02020886118BD20208862AB
:100A000018BD000000100240000400500748416873
:100A1000074842680123120C12045B031A43114376
:100A200041600449C003886070470000000FFF1F49
:100A30000010024000ED00E010B5054C01E000F0B0
:100A40002FF820688006FAD56068C0B210BD00009B
:100A50000038014010B5054C2168606001E000F0ED
:100A60001FF820684006FAD510BD0000003801408C
:100A700000B50748006AC00406D40748054901606C
:100A8000072141600549816000F00AF800BD0000BF
:100A9000002002405555000000300040FF0F0000CC
:100AA000044801687F22114301600449024808603C
:100AB00070470000002C0040AAAA0000003000404F
:100AC000F0B58C46521C5106490E4406640E214373
:100AD00001D00020F0BD20494C69204D2C434C61D1
:100AE00000240025D609B6461CE000230127FF0498
:100AF000664636590651241D1E2B02D14E693E43CF
:100B00004E615B1C9BB2202BF2D30B69DB03FCD440
:100B10000B69DB070FD001230E6901273E430E61ED
:100B20006D1CADB2AE45E0D84C690C4DED432C4088
:100B30004C6100210BE00023F6E7455864466458F9
:100B4000A54201D0002304E0091D121F92B2002A21
:100B5000F3D11846F0BD0000002002400100000162
:100B6000FEB501A8FFF710FD0646012E05D0022EA6
:100B700003D0032E01D00020FEBDFFF75DFF074626
:100B800000247D1C05E0FFF757FF1A490855641C37
:100B9000A4B2AC42F7D3FFF74FFF04463A46791CA4
:100BA0001448FFF775FD844201D00020FEBD012EE0
:100BB00004D0022E09D0032E1AD113E03A460D4973
:100BC0000198FFF77DFF009012E000200949019A8B
:100BD00003E00B5C1354401C80B2A842F9D30120FF
:100BE000009005E03A460349019800F009F80090AA
:100BF0000098FEBDC80000207047000010000000F3
:100C0000F8B586461046364A156A566AD76A52695A
:100C1000520004D5324A334BD360334BD3600023A8
:100C2000FF221202401C844632E07046C4182F484E
:100C3000844203D1280A0002CD5C05432B48401CA6
:100C4000844203D19543C85C000205432748001D38
:100C5000844203D1300A0002CE5C06432348401D83
:100C6000844203D19643C85C000206431F480C30FF
:100C7000844203D1380A0002CF5C07431B480D3081
:100C8000844203D19743CC5C240227435B1C9BB274
:100C90006345CAD3124C25626662E76260698121AE
:100CA0004904084360610E4AFF20803210602069C9
:100CB000C003FCD42069C507ED0F20690122104351
:100CC0002061606988436061002D07D07920FFF7BB
:100CD000C1FE60690121C906084360612846F8BD6C
:100CE000002002403B2A19087F6E5D4C800EFF1FDA
:100CF000F8B5184DFFF7A0FE074600247E1C05E05E
:100D0000FFF79AFE14490855641CA4B2B442F7D305
:100D1000FFF792FE04463A46791C0F48FFF7B8FCED
:100D2000844201D00020F8BD00200B4A012105E0DB
:100D3000145C0B46A3409D43401C80B2B042F7D3E5
:100D40001570280A5070012203490448FFF758FF24
:100D5000F8BD0000FFFF0000C80000208C0EFF1F40
:100D600002E008C8121F08C1002AFAD1704700200B
:100D700001E001C1121F002AFBD170470020FFF7DC
:100D80001FFE07480121008AC903C004C00C401897
:100D90000449FFF7D9F9FFF709FAFFF799FAFCE7D9
:100DA000000FFF1F00366E01000102112131446364
:100DB00073829203D40D000800000020C8000000D8
:100DC000600D00089C0E0008C8000020800500008F
:100DD0006E0D000800000000000000000000000090
:100DE0000000000000000000000000000000000003
:100DF00000000000000000000000000000000000F3
:100E000000000000000000000000000000000000E2
:100E100000000000000000000000000000000000D2
:100E200000000000000000000000000000000000C2
:100E300000000000000000000000000000000000B2
:100E400000000000000000000000000000000000A2
:100E50000000000000000000000000000000000092
:100E60000000000000000000000000000000000082
:100E70000000000000000000000000000000000072
:100E80000000000000000000000000000000000062
:0C0E90000000000000127A0000000000CA
:04000005080000C12E
:00000001FF
