:020000040800F2
:1000000050060020D9000008E1000008E3000008C5
:1000100000000000000000000000000000000000E0
:10002000000000000000000000000000E5000008E3
:100030000000000000000000E7000008E9000008E0
:10004000EB000008EB000008EB000008EB000008E4
:10005000EB000008EB000008EB000008EB000008D4
:1000600000000000EB000008EB00000800000000AA
:10007000EB000008EB000008EB00000800000000A7
:10008000EB000008EB00000800000000EB00000897
:1000900000000000EB000008EB000008EB00000887
:1000A00000000000EB00000800000000EB0000086A
:1000B000EB0000080000000000000000000000004D
:1000C0000448854600F016F800480047190100086A
:1000D000C046C046500600200448804704480047F8
:1000E000FEE7FEE7FEE7FEE7FEE7FEE7B50A0008EB
:1000F000C1000008064C0125064E05E0E36807CC68
:100100002B430C3C98471034B442F7D3FFF7DCFF85
:100110007C0E00089C0E000810B50122D2060020BB
:10012000074B810054585C50401CC0B23028F8D3B3
:10013000012004494007886000F070FE002010BDD7
:100140000000002000ED00E010B503460846154A07
:1001500011689415214311605168090C0904194371
:10016000516011684905CB0F002BFAD091680F231D
:100170001B02994391609168C908C90091603824B5
:1001800093682340002BFBD107490B685B085B0099
:100190000B60916807231B039943916000F056FBA5
:1001A00010BD00000010024000200240064A8100FD
:1001B0005158064A4000105A0969884301D000206E
:1001C0007047012070470000C8000020740E00082E
:1001D000F3B581B00446002C02D1012000F02AFBC7
:1001E000234F24486600A500B95B4059002200F067
:1001F00002FB2048B95B4059002200F010FB029836
:10020000012833D1381D40591B490A6802430A604E
:10021000194980394A6802434A603F1F3957FF2510
:10022000C02600290FDA0807000F08388208134893
:1002300092001218D3698807C00E8540AB438640F0
:100240003343D3610BE08A080D48920012181368FB
:100250008807C00E8540AB43864033431360385D4A
:10026000C106C90E0120884006490860FEBD000095
:10027000740E0008C80000208018024000ED00E065
:1002800000E400E000E100E070B500F041FC3B4814
:10029000416B022211434163394C206803218903D9
:1002A00088432060E06855032843E06000F048FC84
:1002B00002224021204600F094FA022280212046AA
:1002C00000F08FFA00224021204600F07DFA002243
:1002D0008021204600F078FA402061688143616007
:1002E000802061688143616001224021204600F046
:1002F0008CFA01228021204600F087FA1F48403006
:100300000168294301601F48C168A2141143C160FC
:10031000D021816041690322520391438214114329
:100320004161C16843141943C16001684905FCD5A6
:100330000168090506D48168134B994202D8816887
:10034000182908D2BFF34F8F11491048C860BFF376
:100350004F8F00BFFDE772B601681143016041692C
:10036000914341610168602291430160C1680C22A0
:100370001143C160792000F0C1FB70BD0010024044
:1003800000040050003801403A5500000400FA050E
:1003900000ED00E0F8B5012600F0A2FB044600F0F5
:1003A0009FFB01466140FF2903D01F2000F0A6FB00
:1003B000F8BD792000F0A2FB734F732C0BD006DC44
:1003C000312C08D0442C06D0632C35D103E0822C8C
:1003D00001D0922C30D13869C00303D51F2000F022
:1003E0008DFBF8BD7869002826DA6848B86068484F
:1003F000B8606848C16ACAB267490A60C26AD20175
:10040000D20D4A60C26A1204120E0A61026BD2B2A5
:100410008A60026B5201520DCA60426BD203D20B4A
:100420004A61826BD203D20B8A61C26B92B2CA61FB
:10043000C06B8000800C0862312C64D00EDC032C71
:100440004CD006DC002C25D0012C33D0022C16D148
:100450003AE0112C50D0212C11D150E000211F2264
:100460004E48732C5BD004DC442C50D0632C06D156
:1004700051E0484BC03B822C5ED0922C65D00026C8
:10048000732C73D06EDC312C70D0442C6ED0632C66
:1004900071D16BE00C2000F031FB102000F02EFB3E
:1004A00000253F48405D00F029FB6D1CEDB20C2D8E
:1004B000F7D3E5E7102000F021FB002000F01EFB41
:1004C000002000F01BFBDBE7012000F017FB0420FD
:1004D00000F014FB402000F011FBD1E7012000F0F8
:1004E0000DFB304D28680005000F00F007FB286861
:1004F000C0B200F003FBC3E700F01EFAF8BD00F045
:1005000035F90646BCE700F02BFB0646B8E700F0DD
:100510004BF80646B4E700F03BFC0646B0E7027035
:100520004170FF21017141711A4807221B49BC38F3
:1005300000F0B6FB0646A3E75521017000221749DB
:10054000184600F0ADFB06469AE7AA250570B025CF
:1005500045700271417107221049184600F0A0FB56
:1005600006468DE7822C01D0922C04D178690121B6
:10057000C90708437861012E03D01F2000F0BEFA9E
:10058000F8BD7920FAE7000000200240230167450A
:10059000AB89EFCD400FFF1F00210240CC000020AF
:1005A000640E000800580140FEB500F099FA0546B7
:1005B00000F096FA009028460546009868400190A1
:1005C000FF2D04D00026009C641C67000FE000F0A3
:1005D00087FA0199884201D00020FEBD00F03CF965
:1005E000FEBD00F07DFA18498855761CF6B2B74278
:1005F000F7D839461448019A00F0ACF8064600F0E6
:100600006FFAB04201D00020FEBD00210E4807E085
:100610004A00835C1618777887547370491CC9B2F6
:10062000A142F5D3002D03D0202D07D00020FEBD20
:1006300008220548009900F02FF9FEBD02480099F4
:1006400000F0E2F9FEBD0000CC00002070B50446C9
:1006500000F046FA374D287000F042FA687000F05A
:100660003FFAA87000F03CFAE87000F039FA06464C
:1006700000220421284600F06DF8864201D00020B7
:1006800070BD792000F03AFA2978E8780906401818
:100690006978AA7809041202891840182060264A4D
:1006A000264B811A90420BD005DC254940180FD00B
:1006B00026280FD104E0082904D020290AD103E01C
:1006C000032070BD236005E01C488030206001E0FD
:1006D0001C4820600122D2061B4D287F4007400F96
:1006E000401C400381182068904203D3884201D205
:1006F000012070BD154A297F14058906890F491C00
:10070000C9020919904203D3884201D2022070BD68
:100710000F49884203D3984201D2052070BD0A498F
:100720002031984203D3884201D2032070BD0020BB
:1007300070BD0000CC000020E0F7FF1F000EFF1F7F
:100740005A0800E0FC0B0008E00FFF1F0002002029
:100750000000FF1F02E00378401C5A400B46491E70
:1007600089B2002BF7D110467047000008B56846E3
:10077000FFF76CFF012803D0022801D0002008BD3C
:100780000748012180884903C004C00C401805496E
:10079000FFF7DAFC009800F007F8012008BD000020
:1007A000000FFF1F00127A000168064A1140012263
:1007B0005207914205D162B6016881F3088840680A
:1007C000004770470000FE2F10B5046A0B464B43EC
:1007D0004B434B431901C91A8C4353431C430462D6
:1007E00010BD10B5036849434C000C19A343514395
:1007F0000B43036010BD10B5036849434C000C194E
:10080000A34351430B43036010BD10B5C368494374
:100810004C000C19A34351430B43C36010BD10B5EA
:10082000C36849434C000C19A34351430B43C360B5
:1008300010BD000008B504494A6B02434A63496B86
:100840000140009108BD000000100240014908600D
:1008500070470000C0000020F8B50D4C0D49097F1D
:10086000E2034907490F491C49038D185642D71323
:100870000AE0A0190001000C00900021684600F079
:10088000C3F8012802D1E419AC42F2D3F8BD00004C
:1008900000100008E00FFF1FF7B582B016460120D8
:1008A000224F7A69224B1A437A610025491C019133
:1008B0002FE0012830D1002427E000F041F9029810
:1008C0006900405A012170430019C001C90640184F
:1008D0001849097F1F224907490F491CD2064903BD
:1008E0008218914201D801200DE00021C943016026
:1008F0003869C003FCD43869C00714D001203969B5
:10090000012211433961641CE4B2B442D5D36D1C99
:10091000EDB201998D42CCD37969054AD243114099
:10092000796105B0F0BD0020F1E700000020024031
:1009300002000001E00FFF1F38B56846FFF786FE92
:10094000044620000BD000F0CBF82B4D287000F0AF
:10095000C7F829784840FF2803D0002038BD002080
:1009600038BD792000F0CAF824490098401804D016
:10097000142802D0012C1ED02FE02148017F490706
:10098000490F491CC90069700021A970007F8006C9
:10099000800F401C4000E8702971002405E02819F0
:1009A000407800F0ABF8641CA4B22878401CA04248
:1009B000F5D8012038BD1348006AC0B2AA280CD06F
:1009C000002404E0207800F099F8641CA4B2287890
:1009D000401CA042F6D8012038BD002405E0009854
:1009E000005D00F08BF8641CA4B22878401CA04283
:1009F000F5D8012038BD0000CC000020340800E00C
:100A0000E00FFF1F00200240F8B50746144D6A6949
:100A1000144B1A436A6100244E1C17E000F090F852
:100A20006100795A00200A030121C043C906511808
:100A300008602869C003FCD42869C0070ED00120D3
:100A40002969012211432961641CE4B2B442E5D34F
:100A50006969044AD24311406961F8BD0020F7E793
:100A6000002002400008000118B502210F4A536B14
:100A70000B435363526B0A4000920D490A680123ED
:100A80009B020324A402A2431A430A6020224B685B
:100A900093434B60CA68A243CA60002802D020205A
:100AA000886118BD2020886218BD00000010024037
:100AB0000004005007484168074842680123120CAF
:100AC00012045B031A43114341600449C003886068
:100AD00070470000000FFF1F0010024000ED00E013
:100AE00010B5054C01E000F02BF820688006FAD51F
:100AF0006068C0B210BD00000038014003490A68B8
:100B0000486008684006FCD5704700000038014086
:100B100000B50748006AC00406D4074805490160CB
:100B2000072141600549816000F00AF800BD00001E
:100B3000002002405555000000300040FF0F00002B
:100B4000044801687F22114301600449024808609B
:100B500070470000002C0040AAAA000000300040AE
:100B6000FEB501A8FFF772FD0646012E05D0022E44
:100B700003D0032E01D00020FEBDFFF7B1FF0746D2
:100B800000247D1C05E0FFF7ABFF1A490855641CE3
:100B9000A4B2AC42F7D3FFF7A3FF04463A46791C50
:100BA0001448FFF7D7FD844201D00020FEBD012E7E
:100BB00004D0022E09D0032E1AD113E03A460D4973
:100BC000019800F01DF8009012E000200949019AF8
:100BD00003E00B5C1354401C80B2A842F9D30120FF
:100BE000009005E03A460349019800F059F800905A
:100BF0000098FEBDCC0000207047000010000000EF
:100C0000F0B58C46521C5106490E4406640E214331
:100C100001D00020F0BD20494C69204D2C434C618F
:100C200000240025D609B6461CE000230127FF0456
:100C3000664636590651241D1E2B02D14E693E438D
:100C40004E615B1C9BB2202BF2D30B69DB03FCD4FF
:100C50000B69DB070FD001230E6901273E430E61AC
:100C60006D1CADB2AE45E0D84C690C4DED432C4047
:100C70004C6100210BE00023F6E7455864466458B8
:100C8000A54201D0002304E0091D121F92B2002AE0
:100C9000F3D11846F0BD0000002002400100000121
:100CA000F8B586461046364A156A566AD76A5269BA
:100CB000520004D5324A334BD360334BD360002308
:100CC000FF221202401C844632E07046C4182F48AE
:100CD000844203D1280A0002CD5C05432B48401C06
:100CE000844203D19543C85C000205432748001D98
:100CF000844203D1300A0002CE5C06432348401DE3
:100D0000844203D19643C85C000206431F480C305E
:100D1000844203D1380A0002CF5C07431B480D30E0
:100D2000844203D19743CC5C240227435B1C9BB2D3
:100D30006345CAD3124C25626662E762606981210D
:100D40004904084360610E4AFF2080321060206928
:100D5000C003FCD42069C507ED0F206901221043B0
:100D60002061606988436061002D07D07920FFF71A
:100D7000C5FE60690121C906084360612846F8BDC7
:100D8000002002403B2A19087F6E5D4C800EFF1F39
:100D9000F8B5184DFFF7A4FE074600247E1C05E0B9
:100DA000FFF79EFE14490855641CA4B2B442F7D361
:100DB000FFF796FE04463A46791C0F48FFF7CAFC37
:100DC000844201D00020F8BD00200B4A012105E03B
:100DD000145C0B46A3409D43401C80B2B042F7D345
:100DE0001570280A5070012203490448FFF758FF84
:100DF000F8BD0000FFFF0000CC0000208C0EFF1F9C
:100E000002E008C8121F08C1002AFAD1704700206A
:100E100001E001C1121F002AFBD1704700210846E2
:100E2000FFF7D6F90020FFF7C1F9002802D10A48E0
:100E3000FFF7BAFC09480121008AC903C004C00CAD
:100E400040180749FFF780F9FFF71EFAFFF7A2FAEB
:100E50000020FFF709FEF9E700100008000FFF1F50
:100E600000366E0100010211213144637382920346
:100E70000700200000100000001000009C0E000879
:100E800000000020CC000000000E0008680F0008E1
:100E9000CC000020840500000E0E000800000000B9
:100EA0000000000000000000000000000000000042
:100EB0000000000000000000000000000000000032
:100EC0000000000000000000000000000000000022
:100ED0000000000000000000000000000000000012
:100EE0000000000000000000000000000000000002
:100EF00000000000000000000000000000000000F2
:100F000000000000000000000000000000000000E1
:100F100000000000000000000000000000000000D1
:100F200000000000000000000000000000000000C1
:100F300000000000000000000000000000000000B1
:100F400000000000000000000000000000000000A1
:100F500000000000000000000000000000127A0005
:080F60000004005000000050E5
:04000005080000C12E
:00000001FF
